{
  "_format": "hh-sol-artifact-1",
  "contractName": "TokenMaster",
  "sourceName": "contracts/TokenMaster.sol",
  "abi": [
    {
      "inputs": [
        {
          "internalType": "string",
          "name": "_name",
          "type": "string"
        },
        {
          "internalType": "string",
          "name": "_symbol",
          "type": "string"
        }
      ],
      "stateMutability": "nonpayable",
      "type": "constructor"
    },
    {
      "anonymous": false,
      "inputs": [
        {
          "indexed": true,
          "internalType": "address",
          "name": "owner",
          "type": "address"
        },
        {
          "indexed": true,
          "internalType": "address",
          "name": "approved",
          "type": "address"
        },
        {
          "indexed": true,
          "internalType": "uint256",
          "name": "tokenId",
          "type": "uint256"
        }
      ],
      "name": "Approval",
      "type": "event"
    },
    {
      "anonymous": false,
      "inputs": [
        {
          "indexed": true,
          "internalType": "address",
          "name": "owner",
          "type": "address"
        },
        {
          "indexed": true,
          "internalType": "address",
          "name": "operator",
          "type": "address"
        },
        {
          "indexed": false,
          "internalType": "bool",
          "name": "approved",
          "type": "bool"
        }
      ],
      "name": "ApprovalForAll",
      "type": "event"
    },
    {
      "anonymous": false,
      "inputs": [
        {
          "indexed": true,
          "internalType": "address",
          "name": "previousOwner",
          "type": "address"
        },
        {
          "indexed": true,
          "internalType": "address",
          "name": "newOwner",
          "type": "address"
        }
      ],
      "name": "OwnershipTransferred",
      "type": "event"
    },
    {
      "anonymous": false,
      "inputs": [
        {
          "indexed": true,
          "internalType": "address",
          "name": "buyer",
          "type": "address"
        },
        {
          "indexed": true,
          "internalType": "uint256",
          "name": "tokenId",
          "type": "uint256"
        },
        {
          "indexed": false,
          "internalType": "uint256",
          "name": "occasionId",
          "type": "uint256"
        },
        {
          "indexed": false,
          "internalType": "uint256",
          "name": "seatNumber",
          "type": "uint256"
        },
        {
          "indexed": false,
          "internalType": "string",
          "name": "metadataURI",
          "type": "string"
        }
      ],
      "name": "TicketMinted",
      "type": "event"
    },
    {
      "anonymous": false,
      "inputs": [
        {
          "indexed": true,
          "internalType": "address",
          "name": "from",
          "type": "address"
        },
        {
          "indexed": true,
          "internalType": "address",
          "name": "to",
          "type": "address"
        },
        {
          "indexed": true,
          "internalType": "uint256",
          "name": "tokenId",
          "type": "uint256"
        }
      ],
      "name": "Transfer",
      "type": "event"
    },
    {
      "inputs": [
        {
          "internalType": "address",
          "name": "to",
          "type": "address"
        },
        {
          "internalType": "uint256",
          "name": "tokenId",
          "type": "uint256"
        }
      ],
      "name": "approve",
      "outputs": [],
      "stateMutability": "nonpayable",
      "type": "function"
    },
    {
      "inputs": [
        {
          "internalType": "address",
          "name": "owner",
          "type": "address"
        }
      ],
      "name": "balanceOf",
      "outputs": [
        {
          "internalType": "uint256",
          "name": "",
          "type": "uint256"
        }
      ],
      "stateMutability": "view",
      "type": "function"
    },
    {
      "inputs": [
        {
          "internalType": "uint256",
          "name": "tokenId",
          "type": "uint256"
        }
      ],
      "name": "getApproved",
      "outputs": [
        {
          "internalType": "address",
          "name": "",
          "type": "address"
        }
      ],
      "stateMutability": "view",
      "type": "function"
    },
    {
      "inputs": [
        {
          "internalType": "uint256",
          "name": "_id",
          "type": "uint256"
        }
      ],
      "name": "getOccasion",
      "outputs": [
        {
          "components": [
            {
              "internalType": "uint256",
              "name": "id",
              "type": "uint256"
            },
            {
              "internalType": "string",
              "name": "name",
              "type": "string"
            },
            {
              "internalType": "uint256",
              "name": "cost",
              "type": "uint256"
            },
            {
              "internalType": "uint256",
              "name": "tickets",
              "type": "uint256"
            },
            {
              "internalType": "uint256",
              "name": "maxTickets",
              "type": "uint256"
            },
            {
              "internalType": "string",
              "name": "date",
              "type": "string"
            },
            {
              "internalType": "string",
              "name": "time",
              "type": "string"
            },
            {
              "internalType": "string",
              "name": "location",
              "type": "string"
            }
          ],
          "internalType": "struct TokenMaster.Occasion",
          "name": "",
          "type": "tuple"
        }
      ],
      "stateMutability": "view",
      "type": "function"
    },
    {
      "inputs": [
        {
          "internalType": "uint256",
          "name": "_id",
          "type": "uint256"
        }
      ],
      "name": "getSeatsTaken",
      "outputs": [
        {
          "internalType": "uint256[]",
          "name": "",
          "type": "uint256[]"
        }
      ],
      "stateMutability": "view",
      "type": "function"
    },
    {
      "inputs": [
        {
          "internalType": "uint256",
          "name": "",
          "type": "uint256"
        },
        {
          "internalType": "address",
          "name": "",
          "type": "address"
        }
      ],
      "name": "hasBought",
      "outputs": [
        {
          "internalType": "bool",
          "name": "",
          "type": "bool"
        }
      ],
      "stateMutability": "view",
      "type": "function"
    },
    {
      "inputs": [
        {
          "internalType": "address",
          "name": "owner",
          "type": "address"
        },
        {
          "internalType": "address",
          "name": "operator",
          "type": "address"
        }
      ],
      "name": "isApprovedForAll",
      "outputs": [
        {
          "internalType": "bool",
          "name": "",
          "type": "bool"
        }
      ],
      "stateMutability": "view",
      "type": "function"
    },
    {
      "inputs": [
        {
          "internalType": "string",
          "name": "_name",
          "type": "string"
        },
        {
          "internalType": "uint256",
          "name": "_cost",
          "type": "uint256"
        },
        {
          "internalType": "uint256",
          "name": "_maxTickets",
          "type": "uint256"
        },
        {
          "internalType": "string",
          "name": "_date",
          "type": "string"
        },
        {
          "internalType": "string",
          "name": "_time",
          "type": "string"
        },
        {
          "internalType": "string",
          "name": "_location",
          "type": "string"
        }
      ],
      "name": "list",
      "outputs": [],
      "stateMutability": "nonpayable",
      "type": "function"
    },
    {
      "inputs": [
        {
          "internalType": "uint256",
          "name": "_id",
          "type": "uint256"
        },
        {
          "internalType": "uint256",
          "name": "_seat",
          "type": "uint256"
        }
      ],
      "name": "mint",
      "outputs": [],
      "stateMutability": "payable",
      "type": "function"
    },
    {
      "inputs": [],
      "name": "name",
      "outputs": [
        {
          "internalType": "string",
          "name": "",
          "type": "string"
        }
      ],
      "stateMutability": "view",
      "type": "function"
    },
    {
      "inputs": [
        {
          "internalType": "uint256",
          "name": "",
          "type": "uint256"
        }
      ],
      "name": "occasions",
      "outputs": [
        {
          "internalType": "uint256",
          "name": "id",
          "type": "uint256"
        },
        {
          "internalType": "string",
          "name": "name",
          "type": "string"
        },
        {
          "internalType": "uint256",
          "name": "cost",
          "type": "uint256"
        },
        {
          "internalType": "uint256",
          "name": "tickets",
          "type": "uint256"
        },
        {
          "internalType": "uint256",
          "name": "maxTickets",
          "type": "uint256"
        },
        {
          "internalType": "string",
          "name": "date",
          "type": "string"
        },
        {
          "internalType": "string",
          "name": "time",
          "type": "string"
        },
        {
          "internalType": "string",
          "name": "location",
          "type": "string"
        }
      ],
      "stateMutability": "view",
      "type": "function"
    },
    {
      "inputs": [],
      "name": "owner",
      "outputs": [
        {
          "internalType": "address",
          "name": "",
          "type": "address"
        }
      ],
      "stateMutability": "view",
      "type": "function"
    },
    {
      "inputs": [
        {
          "internalType": "uint256",
          "name": "tokenId",
          "type": "uint256"
        }
      ],
      "name": "ownerOf",
      "outputs": [
        {
          "internalType": "address",
          "name": "",
          "type": "address"
        }
      ],
      "stateMutability": "view",
      "type": "function"
    },
    {
      "inputs": [],
      "name": "renounceOwnership",
      "outputs": [],
      "stateMutability": "nonpayable",
      "type": "function"
    },
    {
      "inputs": [
        {
          "internalType": "address",
          "name": "from",
          "type": "address"
        },
        {
          "internalType": "address",
          "name": "to",
          "type": "address"
        },
        {
          "internalType": "uint256",
          "name": "tokenId",
          "type": "uint256"
        }
      ],
      "name": "safeTransferFrom",
      "outputs": [],
      "stateMutability": "nonpayable",
      "type": "function"
    },
    {
      "inputs": [
        {
          "internalType": "address",
          "name": "from",
          "type": "address"
        },
        {
          "internalType": "address",
          "name": "to",
          "type": "address"
        },
        {
          "internalType": "uint256",
          "name": "tokenId",
          "type": "uint256"
        },
        {
          "internalType": "bytes",
          "name": "data",
          "type": "bytes"
        }
      ],
      "name": "safeTransferFrom",
      "outputs": [],
      "stateMutability": "nonpayable",
      "type": "function"
    },
    {
      "inputs": [
        {
          "internalType": "uint256",
          "name": "",
          "type": "uint256"
        },
        {
          "internalType": "uint256",
          "name": "",
          "type": "uint256"
        }
      ],
      "name": "seatTaken",
      "outputs": [
        {
          "internalType": "address",
          "name": "",
          "type": "address"
        }
      ],
      "stateMutability": "view",
      "type": "function"
    },
    {
      "inputs": [
        {
          "internalType": "uint256",
          "name": "",
          "type": "uint256"
        },
        {
          "internalType": "uint256",
          "name": "",
          "type": "uint256"
        }
      ],
      "name": "seatsTaken",
      "outputs": [
        {
          "internalType": "uint256",
          "name": "",
          "type": "uint256"
        }
      ],
      "stateMutability": "view",
      "type": "function"
    },
    {
      "inputs": [
        {
          "internalType": "address",
          "name": "operator",
          "type": "address"
        },
        {
          "internalType": "bool",
          "name": "approved",
          "type": "bool"
        }
      ],
      "name": "setApprovalForAll",
      "outputs": [],
      "stateMutability": "nonpayable",
      "type": "function"
    },
    {
      "inputs": [
        {
          "internalType": "bytes4",
          "name": "interfaceId",
          "type": "bytes4"
        }
      ],
      "name": "supportsInterface",
      "outputs": [
        {
          "internalType": "bool",
          "name": "",
          "type": "bool"
        }
      ],
      "stateMutability": "view",
      "type": "function"
    },
    {
      "inputs": [],
      "name": "symbol",
      "outputs": [
        {
          "internalType": "string",
          "name": "",
          "type": "string"
        }
      ],
      "stateMutability": "view",
      "type": "function"
    },
    {
      "inputs": [
        {
          "internalType": "uint256",
          "name": "tokenId",
          "type": "uint256"
        }
      ],
      "name": "tokenURI",
      "outputs": [
        {
          "internalType": "string",
          "name": "",
          "type": "string"
        }
      ],
      "stateMutability": "view",
      "type": "function"
    },
    {
      "inputs": [],
      "name": "totalOccasions",
      "outputs": [
        {
          "internalType": "uint256",
          "name": "",
          "type": "uint256"
        }
      ],
      "stateMutability": "view",
      "type": "function"
    },
    {
      "inputs": [],
      "name": "totalSupply",
      "outputs": [
        {
          "internalType": "uint256",
          "name": "",
          "type": "uint256"
        }
      ],
      "stateMutability": "view",
      "type": "function"
    },
    {
      "inputs": [
        {
          "internalType": "address",
          "name": "from",
          "type": "address"
        },
        {
          "internalType": "address",
          "name": "to",
          "type": "address"
        },
        {
          "internalType": "uint256",
          "name": "tokenId",
          "type": "uint256"
        }
      ],
      "name": "transferFrom",
      "outputs": [],
      "stateMutability": "nonpayable",
      "type": "function"
    },
    {
      "inputs": [
        {
          "internalType": "address",
          "name": "newOwner",
          "type": "address"
        }
      ],
      "name": "transferOwnership",
      "outputs": [],
      "stateMutability": "nonpayable",
      "type": "function"
    },
    {
      "inputs": [],
      "name": "withdraw",
      "outputs": [],
      "stateMutability": "nonpayable",
      "type": "function"
    }
  ],
  "bytecode": "0x60806040523480156200001157600080fd5b5060405162004d7238038062004d7283398181016040528101906200003791906200044a565b818181600090816200004a91906200071a565b5080600190816200005c91906200071a565b5050506200007f620000736200009860201b60201c565b620000a060201b60201c565b62000090336200016660201b60201c565b50506200091c565b600033905090565b6000600660009054906101000a900473ffffffffffffffffffffffffffffffffffffffff16905081600660006101000a81548173ffffffffffffffffffffffffffffffffffffffff021916908373ffffffffffffffffffffffffffffffffffffffff1602179055508173ffffffffffffffffffffffffffffffffffffffff168173ffffffffffffffffffffffffffffffffffffffff167f8be0079c531659141344cd1fd0a4f28419497f9722a3daafe3b4186f6b6457e060405160405180910390a35050565b62000176620001fc60201b60201c565b600073ffffffffffffffffffffffffffffffffffffffff168173ffffffffffffffffffffffffffffffffffffffff1603620001e8576040517f08c379a0000000000000000000000000000000000000000000000000000000008152600401620001df9062000888565b60405180910390fd5b620001f981620000a060201b60201c565b50565b6200020c6200009860201b60201c565b73ffffffffffffffffffffffffffffffffffffffff16620002326200028d60201b60201c565b73ffffffffffffffffffffffffffffffffffffffff16146200028b576040517f08c379a00000000000000000000000000000000000000000000000000000000081526004016200028290620008fa565b60405180910390fd5b565b6000600660009054906101000a900473ffffffffffffffffffffffffffffffffffffffff16905090565b6000604051905090565b600080fd5b600080fd5b600080fd5b600080fd5b6000601f19601f8301169050919050565b7f4e487b7100000000000000000000000000000000000000000000000000000000600052604160045260246000fd5b6200032082620002d5565b810181811067ffffffffffffffff82111715620003425762000341620002e6565b5b80604052505050565b600062000357620002b7565b905062000365828262000315565b919050565b600067ffffffffffffffff821115620003885762000387620002e6565b5b6200039382620002d5565b9050602081019050919050565b60005b83811015620003c0578082015181840152602081019050620003a3565b60008484015250505050565b6000620003e3620003dd846200036a565b6200034b565b905082815260208101848484011115620004025762000401620002d0565b5b6200040f848285620003a0565b509392505050565b600082601f8301126200042f576200042e620002cb565b5b815162000441848260208601620003cc565b91505092915050565b60008060408385031215620004645762000463620002c1565b5b600083015167ffffffffffffffff811115620004855762000484620002c6565b5b620004938582860162000417565b925050602083015167ffffffffffffffff811115620004b757620004b6620002c6565b5b620004c58582860162000417565b9150509250929050565b600081519050919050565b7f4e487b7100000000000000000000000000000000000000000000000000000000600052602260045260246000fd5b600060028204905060018216806200052257607f821691505b602082108103620005385762000537620004da565b5b50919050565b60008190508160005260206000209050919050565b60006020601f8301049050919050565b600082821b905092915050565b600060088302620005a27fffffffffffffffffffffffffffffffffffffffffffffffffffffffffffffffff8262000563565b620005ae868362000563565b95508019841693508086168417925050509392505050565b6000819050919050565b6000819050919050565b6000620005fb620005f5620005ef84620005c6565b620005d0565b620005c6565b9050919050565b6000819050919050565b6200061783620005da565b6200062f620006268262000602565b84845462000570565b825550505050565b600090565b6200064662000637565b620006538184846200060c565b505050565b5b818110156200067b576200066f6000826200063c565b60018101905062000659565b5050565b601f821115620006ca5762000694816200053e565b6200069f8462000553565b81016020851015620006af578190505b620006c7620006be8562000553565b83018262000658565b50505b505050565b600082821c905092915050565b6000620006ef60001984600802620006cf565b1980831691505092915050565b60006200070a8383620006dc565b9150826002028217905092915050565b6200072582620004cf565b67ffffffffffffffff811115620007415762000740620002e6565b5b6200074d825462000509565b6200075a8282856200067f565b600060209050601f8311600181146200079257600084156200077d578287015190505b620007898582620006fc565b865550620007f9565b601f198416620007a2866200053e565b60005b82811015620007cc57848901518255600182019150602085019450602081019050620007a5565b86831015620007ec5784890151620007e8601f891682620006dc565b8355505b6001600288020188555050505b505050505050565b600082825260208201905092915050565b7f4f776e61626c653a206e6577206f776e657220697320746865207a65726f206160008201527f6464726573730000000000000000000000000000000000000000000000000000602082015250565b60006200087060268362000801565b91506200087d8262000812565b604082019050919050565b60006020820190508181036000830152620008a38162000861565b9050919050565b7f4f776e61626c653a2063616c6c6572206973206e6f7420746865206f776e6572600082015250565b6000620008e260208362000801565b9150620008ef82620008aa565b602082019050919050565b600060208201905081810360008301526200091581620008d3565b9050919050565b614446806200092c6000396000f3fe60806040526004361061019c5760003560e01c806370a08231116100ec5780639cb04aef1161008a578063b88d4fde11610064578063b88d4fde146105f8578063c87b56dd14610621578063e985e9c51461065e578063f2fde38b1461069b5761019c565b80639cb04aef14610555578063a22cb46514610592578063af296da1146105bb5761019c565b80638da5cb5b116100c65780638da5cb5b146104ab578063953865c1146104d657806395d89b41146105015780639a382f0f1461052c5761019c565b806370a082311461041a578063715018a61461045757806374bc86561461046e5761019c565b80631b2ef1ca1161015957806342842e0e1161013357806342842e0e146103335780634e7497fc1461035c57806361a5672d146103995780636352211e146103dd5761019c565b80631b2ef1ca146102d757806323b872dd146102f35780633ccfd60b1461031c5761019c565b806301ffc9a7146101a157806306fdde03146101de578063081812fc14610209578063095ea7b3146102465780630ef7ec741461026f57806318160ddd146102ac575b600080fd5b3480156101ad57600080fd5b506101c860048036038101906101c39190612948565b6106c4565b6040516101d59190612990565b60405180910390f35b3480156101ea57600080fd5b506101f36107a6565b6040516102009190612a3b565b60405180910390f35b34801561021557600080fd5b50610230600480360381019061022b9190612a93565b610838565b60405161023d9190612b01565b60405180910390f35b34801561025257600080fd5b5061026d60048036038101906102689190612b48565b61087e565b005b34801561027b57600080fd5b5061029660048036038101906102919190612a93565b610995565b6040516102a39190612c46565b60405180910390f35b3480156102b857600080fd5b506102c1610a00565b6040516102ce9190612c77565b60405180910390f35b6102f160048036038101906102ec9190612c92565b610a06565b005b3480156102ff57600080fd5b5061031a60048036038101906103159190612cd2565b610db5565b005b34801561032857600080fd5b50610331610e15565b005b34801561033f57600080fd5b5061035a60048036038101906103559190612cd2565b610e9d565b005b34801561036857600080fd5b50610383600480360381019061037e9190612c92565b610ebd565b6040516103909190612c77565b60405180910390f35b3480156103a557600080fd5b506103c060048036038101906103bb9190612a93565b610eee565b6040516103d4989796959493929190612d25565b60405180910390f35b3480156103e957600080fd5b5061040460048036038101906103ff9190612a93565b611156565b6040516104119190612b01565b60405180910390f35b34801561042657600080fd5b50610441600480360381019061043c9190612dbf565b6111dc565b60405161044e9190612c77565b60405180910390f35b34801561046357600080fd5b5061046c611293565b005b34801561047a57600080fd5b5061049560048036038101906104909190612a93565b6112a7565b6040516104a29190612efb565b60405180910390f35b3480156104b757600080fd5b506104c0611545565b6040516104cd9190612b01565b60405180910390f35b3480156104e257600080fd5b506104eb61156f565b6040516104f89190612c77565b60405180910390f35b34801561050d57600080fd5b50610516611575565b6040516105239190612a3b565b60405180910390f35b34801561053857600080fd5b50610553600480360381019061054e9190613052565b611607565b005b34801561056157600080fd5b5061057c6004803603810190610577919061314f565b611703565b6040516105899190612990565b60405180910390f35b34801561059e57600080fd5b506105b960048036038101906105b491906131bb565b611732565b005b3480156105c757600080fd5b506105e260048036038101906105dd9190612c92565b611748565b6040516105ef9190612b01565b60405180910390f35b34801561060457600080fd5b5061061f600480360381019061061a919061329c565b61178a565b005b34801561062d57600080fd5b5061064860048036038101906106439190612a93565b6117ec565b6040516106559190612a3b565b60405180910390f35b34801561066a57600080fd5b506106856004803603810190610680919061331f565b6118d9565b6040516106929190612990565b60405180910390f35b3480156106a757600080fd5b506106c260048036038101906106bd9190612dbf565b61196d565b005b60007f80ac58cd000000000000000000000000000000000000000000000000000000007bffffffffffffffffffffffffffffffffffffffffffffffffffffffff1916827bffffffffffffffffffffffffffffffffffffffffffffffffffffffff1916148061078f57507f5b5e139f000000000000000000000000000000000000000000000000000000007bffffffffffffffffffffffffffffffffffffffffffffffffffffffff1916827bffffffffffffffffffffffffffffffffffffffffffffffffffffffff1916145b8061079f575061079e826119f0565b5b9050919050565b6060600080546107b59061338e565b80601f01602080910402602001604051908101604052809291908181526020018280546107e19061338e565b801561082e5780601f106108035761010080835404028352916020019161082e565b820191906000526020600020905b81548152906001019060200180831161081157829003601f168201915b5050505050905090565b600061084382611a5a565b6004600083815260200190815260200160002060009054906101000a900473ffffffffffffffffffffffffffffffffffffffff169050919050565b600061088982611156565b90508073ffffffffffffffffffffffffffffffffffffffff168373ffffffffffffffffffffffffffffffffffffffff16036108f9576040517f08c379a00000000000000000000000000000000000000000000000000000000081526004016108f090613431565b60405180910390fd5b8073ffffffffffffffffffffffffffffffffffffffff16610918611aa5565b73ffffffffffffffffffffffffffffffffffffffff161480610947575061094681610941611aa5565b6118d9565b5b610986576040517f08c379a000000000000000000000000000000000000000000000000000000000815260040161097d906134c3565b60405180910390fd5b6109908383611aad565b505050565b6060600c60008381526020019081526020016000208054806020026020016040519081016040528092919081815260200182805480156109f457602002820191906000526020600020905b8154815260200190600101908083116109e0575b50505050509050919050565b60085481565b60008214158015610a1957506007548211155b610a58576040517f08c379a0000000000000000000000000000000000000000000000000000000008152600401610a4f9061352f565b60405180910390fd5b6009600083815260200190815260200160002060020154341015610ab1576040517f08c379a0000000000000000000000000000000000000000000000000000000008152600401610aa89061359b565b60405180910390fd5b600073ffffffffffffffffffffffffffffffffffffffff16600b6000848152602001908152602001600020600083815260200190815260200160002060009054906101000a900473ffffffffffffffffffffffffffffffffffffffff1673ffffffffffffffffffffffffffffffffffffffff1614610b64576040517f08c379a0000000000000000000000000000000000000000000000000000000008152600401610b5b90613607565b60405180910390fd5b600081118015610b8a575060096000838152602001908152602001600020600401548111155b610bc9576040517f08c379a0000000000000000000000000000000000000000000000000000000008152600401610bc090613673565b60405180910390fd5b6001600960008481526020019081526020016000206003016000828254610bf091906136c2565b925050819055506001600a600084815260200190815260200160002060003373ffffffffffffffffffffffffffffffffffffffff1673ffffffffffffffffffffffffffffffffffffffff16815260200190815260200160002060006101000a81548160ff02191690831515021790555033600b6000848152602001908152602001600020600083815260200190815260200160002060006101000a81548173ffffffffffffffffffffffffffffffffffffffff021916908373ffffffffffffffffffffffffffffffffffffffff160217905550600c600083815260200190815260200160002081908060018154018082558091505060019003906000526020600020016000909190919091505560086000815480929190610d10906136f6565b9190505550610d2133600854611b66565b6000610d2e600854611b84565b604051602001610d3e919061385e565b6040516020818303038152906040529050610d5b60085482611ce4565b6008543373ffffffffffffffffffffffffffffffffffffffff167fab9732235b72ac39f1ce5adecded51f5282f66426adf1d640dac599fb5169a6c858585604051610da89392919061388b565b60405180910390a3505050565b610dc6610dc0611aa5565b82611d51565b610e05576040517f08c379a0000000000000000000000000000000000000000000000000000000008152600401610dfc9061393b565b60405180910390fd5b610e10838383611de6565b505050565b610e1d6120df565b6000610e27611545565b73ffffffffffffffffffffffffffffffffffffffff1647604051610e4a9061398c565b60006040518083038185875af1925050503d8060008114610e87576040519150601f19603f3d011682016040523d82523d6000602084013e610e8c565b606091505b5050905080610e9a57600080fd5b50565b610eb88383836040518060200160405280600081525061178a565b505050565b600c6020528160005260406000208181548110610ed957600080fd5b90600052602060002001600091509150505481565b6009602052806000526040600020600091509050806000015490806001018054610f179061338e565b80601f0160208091040260200160405190810160405280929190818152602001828054610f439061338e565b8015610f905780601f10610f6557610100808354040283529160200191610f90565b820191906000526020600020905b815481529060010190602001808311610f7357829003601f168201915b505050505090806002015490806003015490806004015490806005018054610fb79061338e565b80601f0160208091040260200160405190810160405280929190818152602001828054610fe39061338e565b80156110305780601f1061100557610100808354040283529160200191611030565b820191906000526020600020905b81548152906001019060200180831161101357829003601f168201915b5050505050908060060180546110459061338e565b80601f01602080910402602001604051908101604052809291908181526020018280546110719061338e565b80156110be5780601f10611093576101008083540402835291602001916110be565b820191906000526020600020905b8154815290600101906020018083116110a157829003601f168201915b5050505050908060070180546110d39061338e565b80601f01602080910402602001604051908101604052809291908181526020018280546110ff9061338e565b801561114c5780601f106111215761010080835404028352916020019161114c565b820191906000526020600020905b81548152906001019060200180831161112f57829003601f168201915b5050505050905088565b6000806111628361215d565b9050600073ffffffffffffffffffffffffffffffffffffffff168173ffffffffffffffffffffffffffffffffffffffff16036111d3576040517f08c379a00000000000000000000000000000000000000000000000000000000081526004016111ca906139ed565b60405180910390fd5b80915050919050565b60008073ffffffffffffffffffffffffffffffffffffffff168273ffffffffffffffffffffffffffffffffffffffff160361124c576040517f08c379a000000000000000000000000000000000000000000000000000000000815260040161124390613a7f565b60405180910390fd5b600360008373ffffffffffffffffffffffffffffffffffffffff1673ffffffffffffffffffffffffffffffffffffffff168152602001908152602001600020549050919050565b61129b6120df565b6112a5600061219a565b565b6112af612897565b6009600083815260200190815260200160002060405180610100016040529081600082015481526020016001820180546112e89061338e565b80601f01602080910402602001604051908101604052809291908181526020018280546113149061338e565b80156113615780601f1061133657610100808354040283529160200191611361565b820191906000526020600020905b81548152906001019060200180831161134457829003601f168201915b505050505081526020016002820154815260200160038201548152602001600482015481526020016005820180546113989061338e565b80601f01602080910402602001604051908101604052809291908181526020018280546113c49061338e565b80156114115780601f106113e657610100808354040283529160200191611411565b820191906000526020600020905b8154815290600101906020018083116113f457829003601f168201915b5050505050815260200160068201805461142a9061338e565b80601f01602080910402602001604051908101604052809291908181526020018280546114569061338e565b80156114a35780601f10611478576101008083540402835291602001916114a3565b820191906000526020600020905b81548152906001019060200180831161148657829003601f168201915b505050505081526020016007820180546114bc9061338e565b80601f01602080910402602001604051908101604052809291908181526020018280546114e89061338e565b80156115355780601f1061150a57610100808354040283529160200191611535565b820191906000526020600020905b81548152906001019060200180831161151857829003601f168201915b5050505050815250509050919050565b6000600660009054906101000a900473ffffffffffffffffffffffffffffffffffffffff16905090565b60075481565b6060600180546115849061338e565b80601f01602080910402602001604051908101604052809291908181526020018280546115b09061338e565b80156115fd5780601f106115d2576101008083540402835291602001916115fd565b820191906000526020600020905b8154815290600101906020018083116115e057829003601f168201915b5050505050905090565b61160f6120df565b60076000815480929190611622906136f6565b91905055506040518061010001604052806007548152602001878152602001868152602001858152602001858152602001848152602001838152602001828152506009600060075481526020019081526020016000206000820151816000015560208201518160010190816116979190613c4b565b5060408201518160020155606082015181600301556080820151816004015560a08201518160050190816116cb9190613c4b565b5060c08201518160060190816116e19190613c4b565b5060e08201518160070190816116f79190613c4b565b50905050505050505050565b600a6020528160005260406000206020528060005260406000206000915091509054906101000a900460ff1681565b61174461173d611aa5565b8383612260565b5050565b600b6020528160005260406000206020528060005260406000206000915091509054906101000a900473ffffffffffffffffffffffffffffffffffffffff1681565b61179b611795611aa5565b83611d51565b6117da576040517f08c379a00000000000000000000000000000000000000000000000000000000081526004016117d19061393b565b60405180910390fd5b6117e6848484846123cc565b50505050565b60606117f782612428565b611836576040517f08c379a000000000000000000000000000000000000000000000000000000000815260040161182d90613d8f565b60405180910390fd5b600d600083815260200190815260200160002080546118549061338e565b80601f01602080910402602001604051908101604052809291908181526020018280546118809061338e565b80156118cd5780601f106118a2576101008083540402835291602001916118cd565b820191906000526020600020905b8154815290600101906020018083116118b057829003601f168201915b50505050509050919050565b6000600560008473ffffffffffffffffffffffffffffffffffffffff1673ffffffffffffffffffffffffffffffffffffffff16815260200190815260200160002060008373ffffffffffffffffffffffffffffffffffffffff1673ffffffffffffffffffffffffffffffffffffffff16815260200190815260200160002060009054906101000a900460ff16905092915050565b6119756120df565b600073ffffffffffffffffffffffffffffffffffffffff168173ffffffffffffffffffffffffffffffffffffffff16036119e4576040517f08c379a00000000000000000000000000000000000000000000000000000000081526004016119db90613e21565b60405180910390fd5b6119ed8161219a565b50565b60007f01ffc9a7000000000000000000000000000000000000000000000000000000007bffffffffffffffffffffffffffffffffffffffffffffffffffffffff1916827bffffffffffffffffffffffffffffffffffffffffffffffffffffffff1916149050919050565b611a6381612428565b611aa2576040517f08c379a0000000000000000000000000000000000000000000000000000000008152600401611a99906139ed565b60405180910390fd5b50565b600033905090565b816004600083815260200190815260200160002060006101000a81548173ffffffffffffffffffffffffffffffffffffffff021916908373ffffffffffffffffffffffffffffffffffffffff160217905550808273ffffffffffffffffffffffffffffffffffffffff16611b2083611156565b73ffffffffffffffffffffffffffffffffffffffff167f8c5be1e5ebec7d5bd14f71427d1e84f3dd0314c0f7b2291e5b200ac8c7c3b92560405160405180910390a45050565b611b80828260405180602001604052806000815250612469565b5050565b606060008203611bcb576040518060400160405280600181526020017f30000000000000000000000000000000000000000000000000000000000000008152509050611cdf565b600082905060005b60008214611bfd578080611be6906136f6565b915050600a82611bf69190613e70565b9150611bd3565b60008167ffffffffffffffff811115611c1957611c18612f27565b5b6040519080825280601f01601f191660200182016040528015611c4b5781602001600182028036833780820191505090505b5090505b60008514611cd857600182611c6491906136c2565b9150600a85611c739190613ea1565b6030611c7f9190613ed2565b60f81b818381518110611c9557611c94613f06565b5b60200101907effffffffffffffffffffffffffffffffffffffffffffffffffffffffffffff1916908160001a905350600a85611cd19190613e70565b9450611c4f565b8093505050505b919050565b611ced82612428565b611d2c576040517f08c379a0000000000000000000000000000000000000000000000000000000008152600401611d2390613fa7565b60405180910390fd5b80600d60008481526020019081526020016000209081611d4c9190613c4b565b505050565b600080611d5d83611156565b90508073ffffffffffffffffffffffffffffffffffffffff168473ffffffffffffffffffffffffffffffffffffffff161480611d9f5750611d9e81856118d9565b5b80611ddd57508373ffffffffffffffffffffffffffffffffffffffff16611dc584610838565b73ffffffffffffffffffffffffffffffffffffffff16145b91505092915050565b8273ffffffffffffffffffffffffffffffffffffffff16611e0682611156565b73ffffffffffffffffffffffffffffffffffffffff1614611e5c576040517f08c379a0000000000000000000000000000000000000000000000000000000008152600401611e5390614039565b60405180910390fd5b600073ffffffffffffffffffffffffffffffffffffffff168273ffffffffffffffffffffffffffffffffffffffff1603611ecb576040517f08c379a0000000000000000000000000000000000000000000000000000000008152600401611ec2906140cb565b60405180910390fd5b611ed883838360016124c4565b8273ffffffffffffffffffffffffffffffffffffffff16611ef882611156565b73ffffffffffffffffffffffffffffffffffffffff1614611f4e576040517f08c379a0000000000000000000000000000000000000000000000000000000008152600401611f4590614039565b60405180910390fd5b6004600082815260200190815260200160002060006101000a81549073ffffffffffffffffffffffffffffffffffffffff02191690556001600360008573ffffffffffffffffffffffffffffffffffffffff1673ffffffffffffffffffffffffffffffffffffffff168152602001908152602001600020600082825403925050819055506001600360008473ffffffffffffffffffffffffffffffffffffffff1673ffffffffffffffffffffffffffffffffffffffff16815260200190815260200160002060008282540192505081905550816002600083815260200190815260200160002060006101000a81548173ffffffffffffffffffffffffffffffffffffffff021916908373ffffffffffffffffffffffffffffffffffffffff160217905550808273ffffffffffffffffffffffffffffffffffffffff168473ffffffffffffffffffffffffffffffffffffffff167fddf252ad1be2c89b69c2b068fc378daa952ba7f163c4a11628f55a4df523b3ef60405160405180910390a46120da83838360016124ca565b505050565b6120e7611aa5565b73ffffffffffffffffffffffffffffffffffffffff16612105611545565b73ffffffffffffffffffffffffffffffffffffffff161461215b576040517f08c379a000000000000000000000000000000000000000000000000000000000815260040161215290614137565b60405180910390fd5b565b60006002600083815260200190815260200160002060009054906101000a900473ffffffffffffffffffffffffffffffffffffffff169050919050565b6000600660009054906101000a900473ffffffffffffffffffffffffffffffffffffffff16905081600660006101000a81548173ffffffffffffffffffffffffffffffffffffffff021916908373ffffffffffffffffffffffffffffffffffffffff1602179055508173ffffffffffffffffffffffffffffffffffffffff168173ffffffffffffffffffffffffffffffffffffffff167f8be0079c531659141344cd1fd0a4f28419497f9722a3daafe3b4186f6b6457e060405160405180910390a35050565b8173ffffffffffffffffffffffffffffffffffffffff168373ffffffffffffffffffffffffffffffffffffffff16036122ce576040517f08c379a00000000000000000000000000000000000000000000000000000000081526004016122c5906141a3565b60405180910390fd5b80600560008573ffffffffffffffffffffffffffffffffffffffff1673ffffffffffffffffffffffffffffffffffffffff16815260200190815260200160002060008473ffffffffffffffffffffffffffffffffffffffff1673ffffffffffffffffffffffffffffffffffffffff16815260200190815260200160002060006101000a81548160ff0219169083151502179055508173ffffffffffffffffffffffffffffffffffffffff168373ffffffffffffffffffffffffffffffffffffffff167f17307eab39ab6107e8899845ad3d59bd9653f200f220920489ca2b5937696c31836040516123bf9190612990565b60405180910390a3505050565b6123d7848484611de6565b6123e3848484846124d0565b612422576040517f08c379a000000000000000000000000000000000000000000000000000000000815260040161241990614235565b60405180910390fd5b50505050565b60008073ffffffffffffffffffffffffffffffffffffffff1661244a8361215d565b73ffffffffffffffffffffffffffffffffffffffff1614159050919050565b6124738383612657565b61248060008484846124d0565b6124bf576040517f08c379a00000000000000000000000000000000000000000000000000000000081526004016124b690614235565b60405180910390fd5b505050565b50505050565b50505050565b60006124f18473ffffffffffffffffffffffffffffffffffffffff16612874565b1561264a578373ffffffffffffffffffffffffffffffffffffffff1663150b7a0261251a611aa5565b8786866040518563ffffffff1660e01b815260040161253c94939291906142aa565b6020604051808303816000875af192505050801561257857506040513d601f19601f82011682018060405250810190612575919061430b565b60015b6125fa573d80600081146125a8576040519150601f19603f3d011682016040523d82523d6000602084013e6125ad565b606091505b5060008151036125f2576040517f08c379a00000000000000000000000000000000000000000000000000000000081526004016125e990614235565b60405180910390fd5b805181602001fd5b63150b7a0260e01b7bffffffffffffffffffffffffffffffffffffffffffffffffffffffff1916817bffffffffffffffffffffffffffffffffffffffffffffffffffffffff19161491505061264f565b600190505b949350505050565b600073ffffffffffffffffffffffffffffffffffffffff168273ffffffffffffffffffffffffffffffffffffffff16036126c6576040517f08c379a00000000000000000000000000000000000000000000000000000000081526004016126bd90614384565b60405180910390fd5b6126cf81612428565b1561270f576040517f08c379a0000000000000000000000000000000000000000000000000000000008152600401612706906143f0565b60405180910390fd5b61271d6000838360016124c4565b61272681612428565b15612766576040517f08c379a000000000000000000000000000000000000000000000000000000000815260040161275d906143f0565b60405180910390fd5b6001600360008473ffffffffffffffffffffffffffffffffffffffff1673ffffffffffffffffffffffffffffffffffffffff16815260200190815260200160002060008282540192505081905550816002600083815260200190815260200160002060006101000a81548173ffffffffffffffffffffffffffffffffffffffff021916908373ffffffffffffffffffffffffffffffffffffffff160217905550808273ffffffffffffffffffffffffffffffffffffffff16600073ffffffffffffffffffffffffffffffffffffffff167fddf252ad1be2c89b69c2b068fc378daa952ba7f163c4a11628f55a4df523b3ef60405160405180910390a46128706000838360016124ca565b5050565b6000808273ffffffffffffffffffffffffffffffffffffffff163b119050919050565b60405180610100016040528060008152602001606081526020016000815260200160008152602001600081526020016060815260200160608152602001606081525090565b6000604051905090565b600080fd5b600080fd5b60007fffffffff0000000000000000000000000000000000000000000000000000000082169050919050565b612925816128f0565b811461293057600080fd5b50565b6000813590506129428161291c565b92915050565b60006020828403121561295e5761295d6128e6565b5b600061296c84828501612933565b91505092915050565b60008115159050919050565b61298a81612975565b82525050565b60006020820190506129a56000830184612981565b92915050565b600081519050919050565b600082825260208201905092915050565b60005b838110156129e55780820151818401526020810190506129ca565b60008484015250505050565b6000601f19601f8301169050919050565b6000612a0d826129ab565b612a1781856129b6565b9350612a278185602086016129c7565b612a30816129f1565b840191505092915050565b60006020820190508181036000830152612a558184612a02565b905092915050565b6000819050919050565b612a7081612a5d565b8114612a7b57600080fd5b50565b600081359050612a8d81612a67565b92915050565b600060208284031215612aa957612aa86128e6565b5b6000612ab784828501612a7e565b91505092915050565b600073ffffffffffffffffffffffffffffffffffffffff82169050919050565b6000612aeb82612ac0565b9050919050565b612afb81612ae0565b82525050565b6000602082019050612b166000830184612af2565b92915050565b612b2581612ae0565b8114612b3057600080fd5b50565b600081359050612b4281612b1c565b92915050565b60008060408385031215612b5f57612b5e6128e6565b5b6000612b6d85828601612b33565b9250506020612b7e85828601612a7e565b9150509250929050565b600081519050919050565b600082825260208201905092915050565b6000819050602082019050919050565b612bbd81612a5d565b82525050565b6000612bcf8383612bb4565b60208301905092915050565b6000602082019050919050565b6000612bf382612b88565b612bfd8185612b93565b9350612c0883612ba4565b8060005b83811015612c39578151612c208882612bc3565b9750612c2b83612bdb565b925050600181019050612c0c565b5085935050505092915050565b60006020820190508181036000830152612c608184612be8565b905092915050565b612c7181612a5d565b82525050565b6000602082019050612c8c6000830184612c68565b92915050565b60008060408385031215612ca957612ca86128e6565b5b6000612cb785828601612a7e565b9250506020612cc885828601612a7e565b9150509250929050565b600080600060608486031215612ceb57612cea6128e6565b5b6000612cf986828701612b33565b9350506020612d0a86828701612b33565b9250506040612d1b86828701612a7e565b9150509250925092565b600061010082019050612d3b600083018b612c68565b8181036020830152612d4d818a612a02565b9050612d5c6040830189612c68565b612d696060830188612c68565b612d766080830187612c68565b81810360a0830152612d888186612a02565b905081810360c0830152612d9c8185612a02565b905081810360e0830152612db08184612a02565b90509998505050505050505050565b600060208284031215612dd557612dd46128e6565b5b6000612de384828501612b33565b91505092915050565b600082825260208201905092915050565b6000612e08826129ab565b612e128185612dec565b9350612e228185602086016129c7565b612e2b816129f1565b840191505092915050565b600061010083016000830151612e4f6000860182612bb4565b5060208301518482036020860152612e678282612dfd565b9150506040830151612e7c6040860182612bb4565b506060830151612e8f6060860182612bb4565b506080830151612ea26080860182612bb4565b5060a083015184820360a0860152612eba8282612dfd565b91505060c083015184820360c0860152612ed48282612dfd565b91505060e083015184820360e0860152612eee8282612dfd565b9150508091505092915050565b60006020820190508181036000830152612f158184612e36565b905092915050565b600080fd5b600080fd5b7f4e487b7100000000000000000000000000000000000000000000000000000000600052604160045260246000fd5b612f5f826129f1565b810181811067ffffffffffffffff82111715612f7e57612f7d612f27565b5b80604052505050565b6000612f916128dc565b9050612f9d8282612f56565b919050565b600067ffffffffffffffff821115612fbd57612fbc612f27565b5b612fc6826129f1565b9050602081019050919050565b82818337600083830152505050565b6000612ff5612ff084612fa2565b612f87565b90508281526020810184848401111561301157613010612f22565b5b61301c848285612fd3565b509392505050565b600082601f83011261303957613038612f1d565b5b8135613049848260208601612fe2565b91505092915050565b60008060008060008060c0878903121561306f5761306e6128e6565b5b600087013567ffffffffffffffff81111561308d5761308c6128eb565b5b61309989828a01613024565b96505060206130aa89828a01612a7e565b95505060406130bb89828a01612a7e565b945050606087013567ffffffffffffffff8111156130dc576130db6128eb565b5b6130e889828a01613024565b935050608087013567ffffffffffffffff811115613109576131086128eb565b5b61311589828a01613024565b92505060a087013567ffffffffffffffff811115613136576131356128eb565b5b61314289828a01613024565b9150509295509295509295565b60008060408385031215613166576131656128e6565b5b600061317485828601612a7e565b925050602061318585828601612b33565b9150509250929050565b61319881612975565b81146131a357600080fd5b50565b6000813590506131b58161318f565b92915050565b600080604083850312156131d2576131d16128e6565b5b60006131e085828601612b33565b92505060206131f1858286016131a6565b9150509250929050565b600067ffffffffffffffff82111561321657613215612f27565b5b61321f826129f1565b9050602081019050919050565b600061323f61323a846131fb565b612f87565b90508281526020810184848401111561325b5761325a612f22565b5b613266848285612fd3565b509392505050565b600082601f83011261328357613282612f1d565b5b813561329384826020860161322c565b91505092915050565b600080600080608085870312156132b6576132b56128e6565b5b60006132c487828801612b33565b94505060206132d587828801612b33565b93505060406132e687828801612a7e565b925050606085013567ffffffffffffffff811115613307576133066128eb565b5b6133138782880161326e565b91505092959194509250565b60008060408385031215613336576133356128e6565b5b600061334485828601612b33565b925050602061335585828601612b33565b9150509250929050565b7f4e487b7100000000000000000000000000000000000000000000000000000000600052602260045260246000fd5b600060028204905060018216806133a657607f821691505b6020821081036133b9576133b861335f565b5b50919050565b7f4552433732313a20617070726f76616c20746f2063757272656e74206f776e6560008201527f7200000000000000000000000000000000000000000000000000000000000000602082015250565b600061341b6021836129b6565b9150613426826133bf565b604082019050919050565b6000602082019050818103600083015261344a8161340e565b9050919050565b7f4552433732313a20617070726f76652063616c6c6572206973206e6f7420746f60008201527f6b656e206f776e6572206f7220617070726f76656420666f7220616c6c000000602082015250565b60006134ad603d836129b6565b91506134b882613451565b604082019050919050565b600060208201905081810360008301526134dc816134a0565b9050919050565b7f496e76616c6964206f63636173696f6e20494400000000000000000000000000600082015250565b60006135196013836129b6565b9150613524826134e3565b602082019050919050565b600060208201905081810360008301526135488161350c565b9050919050565b7f496e73756666696369656e74207061796d656e74000000000000000000000000600082015250565b60006135856014836129b6565b91506135908261354f565b602082019050919050565b600060208201905081810360008301526135b481613578565b9050919050565b7f5365617420616c72656164792074616b656e0000000000000000000000000000600082015250565b60006135f16012836129b6565b91506135fc826135bb565b602082019050919050565b60006020820190508181036000830152613620816135e4565b9050919050565b7f496e76616c69642073656174206e756d62657200000000000000000000000000600082015250565b600061365d6013836129b6565b915061366882613627565b602082019050919050565b6000602082019050818103600083015261368c81613650565b9050919050565b7f4e487b7100000000000000000000000000000000000000000000000000000000600052601160045260246000fd5b60006136cd82612a5d565b91506136d883612a5d565b92508282039050818111156136f0576136ef613693565b5b92915050565b600061370182612a5d565b91507fffffffffffffffffffffffffffffffffffffffffffffffffffffffffffffffff820361373357613732613693565b5b600182019050919050565b600081905092915050565b7f68747470733a2f2f676174657761792e70696e6174612e636c6f75642f69706660008201527f732f626166796265696777667a7933726477366f6e69626d73326f696867776b60208201527f7a737a6c70356b3736786b706e34686732796e366a686d3566706e73652f0000604082015250565b60006137cb605e8361373e565b91506137d682613749565b605e82019050919050565b60006137ec826129ab565b6137f6818561373e565b93506138068185602086016129c7565b80840191505092915050565b7f2e6a736f6e000000000000000000000000000000000000000000000000000000600082015250565b600061384860058361373e565b915061385382613812565b600582019050919050565b6000613869826137be565b915061387582846137e1565b91506138808261383b565b915081905092915050565b60006060820190506138a06000830186612c68565b6138ad6020830185612c68565b81810360408301526138bf8184612a02565b9050949350505050565b7f4552433732313a2063616c6c6572206973206e6f7420746f6b656e206f776e6560008201527f72206f7220617070726f76656400000000000000000000000000000000000000602082015250565b6000613925602d836129b6565b9150613930826138c9565b604082019050919050565b6000602082019050818103600083015261395481613918565b9050919050565b600081905092915050565b50565b600061397660008361395b565b915061398182613966565b600082019050919050565b600061399782613969565b9150819050919050565b7f4552433732313a20696e76616c696420746f6b656e2049440000000000000000600082015250565b60006139d76018836129b6565b91506139e2826139a1565b602082019050919050565b60006020820190508181036000830152613a06816139ca565b9050919050565b7f4552433732313a2061646472657373207a65726f206973206e6f74206120766160008201527f6c6964206f776e65720000000000000000000000000000000000000000000000602082015250565b6000613a696029836129b6565b9150613a7482613a0d565b604082019050919050565b60006020820190508181036000830152613a9881613a5c565b9050919050565b60008190508160005260206000209050919050565b60006020601f8301049050919050565b600082821b905092915050565b600060088302613b017fffffffffffffffffffffffffffffffffffffffffffffffffffffffffffffffff82613ac4565b613b0b8683613ac4565b95508019841693508086168417925050509392505050565b6000819050919050565b6000613b48613b43613b3e84612a5d565b613b23565b612a5d565b9050919050565b6000819050919050565b613b6283613b2d565b613b76613b6e82613b4f565b848454613ad1565b825550505050565b600090565b613b8b613b7e565b613b96818484613b59565b505050565b5b81811015613bba57613baf600082613b83565b600181019050613b9c565b5050565b601f821115613bff57613bd081613a9f565b613bd984613ab4565b81016020851015613be8578190505b613bfc613bf485613ab4565b830182613b9b565b50505b505050565b600082821c905092915050565b6000613c2260001984600802613c04565b1980831691505092915050565b6000613c3b8383613c11565b9150826002028217905092915050565b613c54826129ab565b67ffffffffffffffff811115613c6d57613c6c612f27565b5b613c77825461338e565b613c82828285613bbe565b600060209050601f831160018114613cb55760008415613ca3578287015190505b613cad8582613c2f565b865550613d15565b601f198416613cc386613a9f565b60005b82811015613ceb57848901518255600182019150602085019450602081019050613cc6565b86831015613d085784890151613d04601f891682613c11565b8355505b6001600288020188555050505b505050505050565b7f4552433732314d657461646174613a2055524920717565727920666f72206e6f60008201527f6e6578697374656e7420746f6b656e0000000000000000000000000000000000602082015250565b6000613d79602f836129b6565b9150613d8482613d1d565b604082019050919050565b60006020820190508181036000830152613da881613d6c565b9050919050565b7f4f776e61626c653a206e6577206f776e657220697320746865207a65726f206160008201527f6464726573730000000000000000000000000000000000000000000000000000602082015250565b6000613e0b6026836129b6565b9150613e1682613daf565b604082019050919050565b60006020820190508181036000830152613e3a81613dfe565b9050919050565b7f4e487b7100000000000000000000000000000000000000000000000000000000600052601260045260246000fd5b6000613e7b82612a5d565b9150613e8683612a5d565b925082613e9657613e95613e41565b5b828204905092915050565b6000613eac82612a5d565b9150613eb783612a5d565b925082613ec757613ec6613e41565b5b828206905092915050565b6000613edd82612a5d565b9150613ee883612a5d565b9250828201905080821115613f0057613eff613693565b5b92915050565b7f4e487b7100000000000000000000000000000000000000000000000000000000600052603260045260246000fd5b7f4552433732314d657461646174613a2055524920736574206f66206e6f6e657860008201527f697374656e7420746f6b656e0000000000000000000000000000000000000000602082015250565b6000613f91602c836129b6565b9150613f9c82613f35565b604082019050919050565b60006020820190508181036000830152613fc081613f84565b9050919050565b7f4552433732313a207472616e736665722066726f6d20696e636f72726563742060008201527f6f776e6572000000000000000000000000000000000000000000000000000000602082015250565b60006140236025836129b6565b915061402e82613fc7565b604082019050919050565b6000602082019050818103600083015261405281614016565b9050919050565b7f4552433732313a207472616e7366657220746f20746865207a65726f2061646460008201527f7265737300000000000000000000000000000000000000000000000000000000602082015250565b60006140b56024836129b6565b91506140c082614059565b604082019050919050565b600060208201905081810360008301526140e4816140a8565b9050919050565b7f4f776e61626c653a2063616c6c6572206973206e6f7420746865206f776e6572600082015250565b60006141216020836129b6565b915061412c826140eb565b602082019050919050565b6000602082019050818103600083015261415081614114565b9050919050565b7f4552433732313a20617070726f766520746f2063616c6c657200000000000000600082015250565b600061418d6019836129b6565b915061419882614157565b602082019050919050565b600060208201905081810360008301526141bc81614180565b9050919050565b7f4552433732313a207472616e7366657220746f206e6f6e20455243373231526560008201527f63656976657220696d706c656d656e7465720000000000000000000000000000602082015250565b600061421f6032836129b6565b915061422a826141c3565b604082019050919050565b6000602082019050818103600083015261424e81614212565b9050919050565b600081519050919050565b600082825260208201905092915050565b600061427c82614255565b6142868185614260565b93506142968185602086016129c7565b61429f816129f1565b840191505092915050565b60006080820190506142bf6000830187612af2565b6142cc6020830186612af2565b6142d96040830185612c68565b81810360608301526142eb8184614271565b905095945050505050565b6000815190506143058161291c565b92915050565b600060208284031215614321576143206128e6565b5b600061432f848285016142f6565b91505092915050565b7f4552433732313a206d696e7420746f20746865207a65726f2061646472657373600082015250565b600061436e6020836129b6565b915061437982614338565b602082019050919050565b6000602082019050818103600083015261439d81614361565b9050919050565b7f4552433732313a20746f6b656e20616c7265616479206d696e74656400000000600082015250565b60006143da601c836129b6565b91506143e5826143a4565b602082019050919050565b60006020820190508181036000830152614409816143cd565b905091905056fea2646970667358221220198653ef03d68ef1c0d8870bef680dbef8a9b6c27e5bad4fad29cbd8e6d610d464736f6c63430008110033",
  "linkReferences": {},
  "deployedLinkReferences": {}
}